:020000040000FA
:10000000A0060020F50000001D0100001F010000F7
:100010002101000023010000250100000000000074
:1000200000000000000000000000000027010000A8
:1000300029010000000000002B0100002D0100003C
:100040002F0100002F0100002F0100002F010000F0
:100050002F0100002F0100002F0100002F010000E0
:100060002F0100002F0100002F0100002F010000D0
:100070002F0100002F0100002F0100002F010000C0
:100080002F0100002F0100002F0100002F010000B0
:100090002F0100002F0100002F0100002F010000A0
:1000A0002F0100002F0100002F0100002F01000090
:1000B0002F0100002F0100002F0100002F01000080
:1000C0002F0100002F0100002F0100002F01000070
:1000D0002F0100002F0100002F0100002F01000060
:1000E0002F0100002F0100002F0100002F01000050
:1000F0002F01000011481249124B99423CBF50F8A1
:10010000042B41F8042BF8D30F494FF000028B4227
:1001100038BF43F8042BFAD30C480047FEE7FEE74C
:10012000FEE7FEE7FEE7FEE7FEE7FEE7FEE7FEE7A7
:1001300007480849084A094B70470000F8020000C8
:1001400000000020A0000020A0060020A702000060
:10015000A0000020A0060020A0020020A002002095
:10016000A2F1020200F00DF8884201DB1DE0F74623
:10017000A1EB00024FEA5202024402F00303002BFB
:10018000EED102B4114602F1040308B44E4E4FF012
:100190000008C6F80080FFF7E7FF01BC02BC4A4E2A
:1001A0004FF00108C6F80080DEE7474E3468012CA6
:1001B00003D0464E056835604AE0454E0568356017
:1001C000444E3468012C06D0424E4FF00108C6F868
:1001D0000080414E07E03E4E37683E4E4FF000082B
:1001E000C6F800803D4EDFF8E880DFF8E09000B50B
:1001F000FE4633E05DF804EB364E3468002C27D120
:10020000374E3468002C06D0354E4FF00008C6F843
:100210000080344E05E0324E4FF00108C6F80080F1
:10022000314EDFF8B880DFF8B09000B5FE4615E03B
:100230005DF804EB2A4E3468002C09D12B4EDFF810
:10024000A480DFF8A49000B5FE4607E05DF804EB5B
:10025000274ED6F800A0504534D088E7D8F8005093
:10026000D9F80070B5F1FF3F08BFB7F1FF3F00D1EB
:10027000F746BD4203DBB7F1FF3F04D10BE0B5F118
:10028000FF3F08D1FFE7B7F1FF3F1EBF3760361DC4
:1002900009F10409E2E7B5F1FF3F1EBF3560361DE5
:1002A00008F10408DAE7CDF800E012484FF0080141
:1002B000A1F101014FEA810101448A460C4EC6F8C2
:1002C00000A051E7FEE700005000002040000020A1
:1002D000480000206C000020540000206000002036
:1002E00098000020840000207000002020000020E2
:1002F0009C0000200000002002000000120000000E
:1003000004000000050000001B0000000C000000BD
:1003100009000000080000000000000000000000CC
:1003200000000000000000000000000000000000CD
:100330000000000000000000FFFFFFFFFFFFFFFFC5
:10034000FFFFFFFFFFFFFFFF00000000FFFFFFFFB9
:10035000FFFFFFFFFFFFFFFFFFFFFFFFFFFFFFFFAD
:10036000FFFFFFFF00000000FFFFFFFFFFFFFFFF99
:10037000FFFFFFFFFFFFFFFFFFFFFFFFFFFFFFFF8D
:10038000FFFFFFFFFFFFFFFFFFFFFFFFFFFFFFFF7D
:08039000000000000000000065
:040000050000016195
:00000001FF
